:100000000C942A000C9447000C9447000C94470071
:100010000C9447000C9447000C9447000C94470044
:100020000C9447000C9447000C9447000C94470034
:100030000C9447000C9447000C9447000C94470024
:100040000C9447000C9447000C9447000C94470014
:100050000C94470011241FBECFE5D4E0DEBFCDBF16
:1000600011E0A0E6B0E0EEE0F1E302C005900D92F1
:10007000A63FB107D9F711E0A6EFB1E001C01D928C
:10008000A83FB107E1F70E948D170C9485180C94D6
:100090000000EF92FF920F931F937B018C0120E0F1
:1000A00030E040E05FE40E94F50388238CF0C80153
:1000B000B70120E030E040E05FE40E94C1010E940F
:1000C00055049B01AC01205030404040504806C0D0
:1000D000C801B7010E9455049B01AC01B901CA01D6
:1000E0001F910F91FF90EF900895A0E0B0E0EBE733
:1000F000F0E00C941D18DC012B01FA019C91923068
:1001000008F439C1EB018881823008F433C194309E
:1001100069F4843009F02FC111969C91119789815F
:10012000981709F428C1ADEBB0E025C1843009F47B
:1001300021C18230A9F4923009F01DC19A01AD01AC
:1001400088E0EA010990AE01E90109929E0181501F
:10015000C1F7E201898111969C918923818308C1AD
:10016000923009F407C112962D903C901397EB0141
:100170008A819B811496AD90BD90CD90DC901797AD
:10018000EC80FD800E811F819101281B390BB90184
:1001900037FF04C066277727621B730B6032710537
:1001A0000CF061C0121613066CF537014801062EDB
:1001B00004C096948794779467940A94D2F721E0C8
:1001C00030E040E050E004C0220F331F441F551FB1
:1001D0006A95D2F721503040404050402E213F21B7
:1001E00040235123211531054105510521F021E01E
:1001F00030E040E050E079018A01E628F72808293C
:1002000019293CC0232BD1F1260E371E350146019A
:10021000062E04C096948794779467940A94D2F734
:1002200021E030E040E050E004C0220F331F441FC3
:10023000551F6A95D2F721503040404050402A2146
:100240003B214C215D21211531054105510521F04E
:1002500021E030E040E050E059016A01A628B728CB
:10026000C828D9280BC0821593052CF01C01AA249C
:10027000BB24650103C0EE24FF24870111969C91E5
:10028000D20111968C91981709F445C0992339F041
:10029000A80197012A193B094C095D0906C0A6016E
:1002A00095012E193F09400B510B57FD08C01182D3
:1002B0003382228224833583468357831DC081E0A5
:1002C00081833382228288279927DC01821B930B4A
:1002D000A40BB50B84839583A683B7830DC0220F2F
:1002E000331F441F551F24833583468357838281E0
:1002F000938101979383828324813581468157813D
:10030000DA01C9010197A109B1098F5F9F4FAF4F72
:10031000BF4328F30BC0918333822282EA0CFB1C7B
:100320000C1D1D1DE482F5820683178383E0808304
:10033000248135814681578157FF1AC0C901AA27F8
:1003400097FDA095BA2F81709070A070B0705695EF
:10035000479537952795822B932BA42BB52B848318
:100360009583A683B7838281938101969383828349
:10037000DF0101C0D201CD01CDB7DEB7E2E10C94BF
:100380003918A0E2B0E0E7ECF1E00C942918698399
:100390007A838B839C832D833E834F835887E9E048
:1003A000EE2EF12CEC0EFD1ECE010196B7010E943F
:1003B00046068E010F5E1F4FCE010596B8010E94C2
:1003C00046068A8991E089278A8BC701B801AE0168
:1003D000475E5F4F0E9475000E947105A096E6E09F
:1003E0000C944518A0E2B0E0E8EFF1E00C94291875
:1003F00069837A838B839C832D833E834F835887C5
:10040000F9E0EF2EF12CEC0EFD1ECE010196B701A6
:100410000E9446068E010F5E1F4FCE010596B80161
:100420000E944606C701B801AE01475E5F4F0E94B9
:1004300075000E947105A096E6E00C944518A0E2B4
:10044000B0E0E5E2F2E00C941D1869837A838B83B7
:100450009C832D833E834F835887CE010196BE0136
:10046000675F7F4F0E944606CE010596BE016F5E14
:100470007F4F0E9446069985923088F089898230A4
:10048000C8F0943019F4823051F404C0843029F457
:10049000923081F48DEB90E0C6C0923049F420E0B8
:1004A0009A858A89981321E02A87CE010996BBC0D4
:1004B000823049F420E09A858A89981321E02A8BBA
:1004C000CE014196B0C02D843E844F8458886D88FB
:1004D0007E888F88988CEE24FF248701AA24BB2471
:1004E000650140E050E060E070E0E0E0F0E0C10174
:1004F00081709070892BE9F0E60CF71C081D191D1E
:100500009A01AB012A0D3B1D4C1D5D1D80E090E062
:10051000A0E0B0E0E614F7040805190520F481E036
:1005200090E0A0E0B0E0BA01A901480F591F6A1F8E
:100530007B1FAA0CBB1CCC1CDD1C97FE08C081E0F5
:1005400090E0A0E0B0E0A82AB92ACA2ADB2A3196B6
:10055000E032F10549F0660C771C881C991C569412
:10056000479437942794C3CFFA85EA892B893C892D
:100570008B859C85280F391F2E5F3F4F17C0CA01FE
:1005800081709070892B61F016950795F794E79428
:1005900080E090E0A0E0B0E8E82AF92A0A2B1B2BC3
:1005A00076956795579547952F5F3F4F77FDE7CF36
:1005B0000CC0440F551F661F771F17FD4160EE0CDE
:1005C000FF1C001F111F21503040403090E05907A0
:1005D00090E0690790E4790760F32B8F3C8FDB0193
:1005E000CA018F779070A070B07080349105A1051A
:1005F000B10561F447FD0AC0E114F10401051105DC
:1006000029F0405C5F4F6F4F7F4F40781A8EFE1786
:1006100011F081E08A8F4D8F5E8F6F8F78A383E01A
:10062000898FCE0149960E947105A096E2E10C9453
:100630003918A8E1B0E0EFE1F3E00C9425186983E4
:100640007A838B839C832D833E834F835887B9E0C5
:10065000EB2EF12CEC0EFD1ECE010196B7010E948F
:1006600046068E010F5E1F4FCE010596B8010E940F
:1006700046062985223008F47EC03989323010F4CC
:10068000B8017CC08A859A8989278A87243011F02D
:10069000223031F4231709F06EC06DEB70E06EC0AC
:1006A000343039F41D861E861F86188A1C861B86E8
:1006B00004C0323021F484E08987B7015FC02B8504
:1006C0003C858B899C89281B390B3C872B87ED84C3
:1006D000FE840F851889AD88BE88CF88D88CEA142F
:1006E000FB040C051D0540F4EE0CFF1C001F111F40
:1006F000215030403C872B8720E030E040E050E044
:1007000080E090E0A0E0B0E460E070E0EA14FB0478
:100710000C051D0540F0282B392B4A2B5B2BEA18C2
:10072000FB080C091D09B695A79597958795EE0CC2
:10073000FF1C001F111F6F5F7F4F6F31710531F775
:10074000DA01C9018F779070A070B0708034910584
:10075000A105B10561F427FD0AC0E114F10401050A
:10076000110529F0205C3F4F4F4F5F4F20782D87B8
:100770003E874F87588BBE01675F7F4FCB010E943A
:1007800071056896EAE00C944118A8E1B0E0EBEC42
:10079000F3E00C94291869837A838B839C832D83DF
:1007A0003E834F83588789E0E82EF12CEC0EFD1E26
:1007B000CE010196B7010E9446068E010F5E1F4FC3
:1007C000CE010596B8010E9446068985823040F028
:1007D0008989823028F0C701B8010E94BE0601C095
:1007E0008FEF6896E6E00C944518A8E1B0E0EBEFD7
:1007F000F3E00C94291869837A838B839C832D837F
:100800003E834F83588789E0E82EF12CEC0EFD1EC5
:10081000CE010196B7010E9446068E010F5E1F4F62
:10082000CE010596B8010E9446068985823040F0C7
:100830008989823028F0C701B8010E94BE0601C034
:100840008FEF6896E6E00C944518A8E1B0E0EBE283
:10085000F4E00C94291869837A838B839C832D831D
:100860003E834F83588789E0E82EF12CEC0EFD1E65
:10087000CE010196B7010E9446068E010F5E1F4F02
:10088000CE010596B8010E9446068985823040F067
:100890008989823028F0C701B8010E94BE0601C0D4
:1008A00081E06896E6E00C944518ACE0B0E0EBE53A
:1008B000F4E00C942D1869837A838B839C83CE019A
:1008C0000196BE016B5F7F4F0E9446068D8182308C
:1008D00061F1823050F1843021F48E81882351F10E
:1008E0002EC02F81388537FD20C06E812F31310514
:1008F0001CF06623F9F023C08EE190E0821B930B7D
:1009000029853A854B855C8504C056954795379572
:1009100027958A95D2F76623B1F05095409530958A
:1009200021953F4F4F4F5F4F0EC020E030E040E039
:1009300050E009C02FEF3FEF4FEF5FE704C020E02A
:1009400030E040E050E8B901CA012C96E2E00C9496
:100950004918A8E0B0E0EFEAF4E00C9425187B0118
:100960008C01611571058105910519F482E0898377
:1009700060C083E089838EE1C82ED12CDC82CB82DB
:10098000ED82FE820F831887C801B7010E942205FD
:10099000FC013197F7FF3BC0222733272E1B3F0B6B
:1009A00057016801022E04C0D694C794B794A79447
:1009B0000A94D2F740E050E060E070E081E090E01F
:1009C000A0E0B0E004C0880F991FAA1FBB1F2A95A2
:1009D000D2F70197A109B1098E219F21A023B1234C
:1009E0000097A105B10521F041E050E060E070E022
:1009F0004A295B296C297D294D835E836F83788723
:100A00008EE190E08E1B9F0B9C838B8312C03097EE
:100A100081F00E2E04C0EE0CFF1C001F111F0A9463
:100A2000D2F7ED82FE820F831887CE1ADF0ADC82AE
:100A3000CB821A82CE0101960E9471052896EAE0C7
:100A40000C944118EF92FF920F931F937B018C013E
:100A500080E0E81680E0F80681E0080780E01807EB
:100A600088F48FEFE816F1040105110531F028F044
:100A700088E090E0A0E0B0E017C080E090E0A0E067
:100A8000B0E012C080E0E81680E0F80680E00807D9
:100A900081E0180728F088E190E0A0E0B0E004C011
:100AA00080E190E0A0E0B0E020E230E040E050E003
:100AB000281B390B4A0B5B0B04C016950795F7945E
:100AC000E7948A95D2F7F701EB53FF4F8081281BFB
:100AD000310941095109C9011F910F91FF90EF9010
:100AE0000895DF92EF92FF920F931F93FC01E48031
:100AF000F58006811781D1808081823048F480E0C2
:100B000090E0A0E1B0E0E82AF92A0A2B1B2BA5C04F
:100B1000843009F49FC0823021F4EE24FF24870141
:100B200005C0E114F1040105110519F4E0E0F0E05D
:100B300096C0628173819FEF623879070CF05BC0C9
:100B400022E83FEF261B370B2A3131052CF020E03D
:100B500030E040E050E02AC0B801A701022E04C0F6
:100B600076956795579547950A94D2F781E090E07E
:100B7000A0E0B0E004C0880F991FAA1FBB1F2A95F0
:100B8000D2F70197A109B1098E219F21A023B1239A
:100B90000097A105B10521F081E090E0A0E0B0E070
:100BA0009A01AB01282B392B4A2B5B2BDA01C901A7
:100BB0008F779070A070B07080349105A105B10559
:100BC00039F427FF09C0205C3F4F4F4F5F4F04C0EF
:100BD000215C3F4F4F4F5F4FE0E0F0E02030A0E05E
:100BE0003A07A0E04A07A0E45A0710F0E1E0F0E07D
:100BF00079018A0127C06038710564F5FB01E1586D
:100C0000FF4FD801C7018F779070A070B07080340B
:100C10009105A105B10539F4E7FE0DC080E490E02F
:100C2000A0E0B0E004C08FE390E0A0E0B0E0E80E08
:100C3000F91E0A1F1B1F17FF05C016950795F7948D
:100C4000E794319687E016950795F794E7948A958F
:100C5000D1F705C0EE24FF248701EFEFF0E06E2FFF
:100C6000679566276795902F9F77D794DD24D79453
:100C70008E2F8695492F462B582F5D29B701CA0123
:100C80001F910F91FF90EF90DF900895FC01DB0121
:100C9000408151812281622F6F7770E0221F2227CD
:100CA000221F9381892F880F822B282F30E0991FD4
:100CB0009927991F11969C93119721153105A9F534
:100CC000411551056105710511F482E037C082E8D4
:100CD0009FEF13969C938E9312979A01AB0167E056
:100CE000220F331F441F551F6A95D1F783E08C9361
:100CF0000DC0220F331F441F551F12968D919C91DA
:100D00001397019713969C938E931297203080E04F
:100D1000380780E0480780E4580758F314962D936D
:100D20003D934D935C93179708952F3F310579F4C8
:100D3000411551056105710519F484E08C930895FE
:100D400064FF03C081E08C9312C01C9210C02F5727
:100D5000304013963C932E93129783E08C9387E058
:100D6000440F551F661F771F8A95D1F7706414963C
:100D70004D935D936D937C93179708951F93DC01BA
:100D8000FB019C91923008F447C08081823008F4C6
:100D900043C0943051F411961C91843099F58181AF
:100DA000682F70E0611B71093FC0843021F09230E0
:100DB00031F48230B9F18181882389F12DC01196F7
:100DC0001C9111978230F1F081811817D9F4129695
:100DD0002D913C911397828193818217930794F010
:100DE00028173907BCF014968D919D910D90BC91F8
:100DF000A02D2481358146815781281739074A075C
:100E00005B0718F4112341F00AC082179307A40767
:100E1000B50740F4112319F061E070E005C06FEFF1
:100E20007FEF02C060E070E0CB011F910895DF9377
:100E3000CF93CDB7DEB784E390E065E041E00E9458
:100E40005D0884E390E066E041E00E945D0881E394
:100E500090E065E041E00E945D088FEC91E00E9427
:100E60004214CF91DF910895DF93CF9300D000D04B
:100E700000D0CDB7DEB789836A838981282F30E01F
:100E80003E832D838D819E81009731F02D813E819F
:100E90002130310571F019C085E390E065E041E053
:100EA0000E94D40885E390E066E040E00E94D40808
:100EB0000CC085E390E065E040E00E94D40885E343
:100EC00090E066E041E00E94D4088A81282F30E05B
:100ED0003C832B838B819C818130910579F02B8120
:100EE0003C812230310581F08B819C81009789F40F
:100EF00081E064E170E00E942C160BC081E062E3A7
:100F000070E00E942C1605C081E06AE570E00E9446
:100F10002C1626960FB6F894DEBF0FBECDBFCF912C
:100F2000DF910895DF93CF93CDB7DEB784E390E0F0
:100F300063E041E00E945D0884E390E064E041E00A
:100F40000E945D0881E390E064E041E00E945D085A
:100F50008FEC91E00E944214CF91DF910895DF93CE
:100F6000CF9300D000D000D0CDB7DEB789836A839D
:100F70008981282F30E03E832D838D819E810097CB
:100F800031F02D813E812130310571F019C085E3AA
:100F900090E063E041E00E94D40885E390E064E0E3
:100FA00040E00E94D4080CC085E390E063E040E09C
:100FB0000E94D40885E390E064E041E00E94D408F8
:100FC0008A81282F30E03C832B838B819C81813068
:100FD000910579F02B813C812230310581F08B81A4
:100FE0009C81009789F481E064E170E00E942C16F6
:100FF0000BC081E062E370E00E942C1605C081E026
:101000006AE570E00E942C1626960FB6F894DEBFB3
:101010000FBECDBFCF91DF910895DF93CF93CDB7B2
:10102000DEB780E061E00E94340780E061E00E946A
:10103000AF070E94990F80E060E00E94A30F80E656
:1010400090E00E940114CF91DF910895DF93CF9338
:10105000CDB7DEB781E061E00E94340781E061E056
:101060000E94AF070E94990F80E060E00E94A30FEA
:101070008FE690E00E940114CF91DF910895DF93F5
:10108000CF93CDB7DEB780E061E00E94340781E006
:1010900061E00E94AF07CF91DF910895DF93CF9376
:1010A000CDB7DEB781E061E00E94340780E061E007
:1010B0000E94AF07CF91DF910895DF93CF9300D0C7
:1010C00000D000D0CDB7DEB79A8389836B834C8381
:1010D0008C81282F30E03E832D838D819E81009767
:1010E00031F02D813E8121303105A9F026C0E98102
:1010F000FA8140818B81282F30E081E090E0022E40
:1011000002C0880F991F0A94E2F780958423E98131
:10111000FA81808312C0E981FA8140818B81282F76
:1011200030E081E090E0022E02C0880F991F0A94FF
:10113000E2F7842BE981FA81808326960FB6F89432
:10114000DEBF0FBECDBFCF91DF910895DF93CF9368
:1011500000D000D0CDB7DEB79B838A836C83EA8151
:10116000FB818081482F50E08C81282F30E081E086
:1011700090E002C0880F991F2A95E2F79A01282370
:1011800039238C81882F90E0A90102C0569547959C
:101190008A95E2F7CA01898389810F900F900F9099
:1011A0000F90CF91DF910895DF93CF9300D000D0BF
:1011B00000D0CDB7DEB79A8389836B834C838C8153
:1011C000282F30E03E832D838D819E81009731F062
:1011D0002D813E8121303105A9F026C0E981FA81B7
:1011E00040818B81282F30E081E090E0022E02C008
:1011F000880F991F0A94E2F780958423E981FA8188
:10120000808312C0E981FA8140818B81282F30E0F0
:1012100081E090E0022E02C0880F991F0A94E2F745
:10122000842BE981FA81808326960FB6F894DEBF7D
:101230000FBECDBFCF91DF910895DF93CF9300D044
:101240000F92CDB7DEB79A8389836B83E981FA81E8
:1012500040818B81282F30E081E090E0022E02C097
:10126000880F991F0A94E2F78427E981FA81808325
:101270000F900F900F90CF91DF910895DF93CF9350
:1012800000D00F92CDB7DEB79A8389836B83E98153
:10129000FA818B8180830F900F900F90CF91DF9117
:1012A0000895DF93CF9300D00F92CDB7DEB79B8325
:1012B0008A83EA81FB818081898389810F900F90E5
:1012C0000F90CF91DF910895DF93CF93CDB7DEB725
:1012D00028970FB6F894DEBF0FBECDBF9A838983DF
:1012E000E981FA818081282F30E038872F838F8130
:1012F0009885009739F02F8138852130310509F420
:1013000052C0AEC0E3E5F0E01082E981FA8181814C
:10131000282F30E03E832D838D819E81009731F010
:101320002D813E812830310591F02FC0A3E5B0E03A
:10133000E3E5F0E080818C93A9E5B0E0E9E5F0E039
:101340009081E981FA818381892B8C931EC0A3E56A
:10135000B0E0E3E5F0E0808188608C93A9E5B0E03F
:10136000E9E5F0E08081282FE981FA818381882FE7
:1013700090E0880F991F822B8C93ACE5B0E0E98157
:10138000FA818481958181508C93A3E5B0E0E3E5F7
:10139000F0E09081E981FA818281892B8C93E2E5EA
:1013A000F0E010825DC0EEE4F0E01082ECE4F0E0EA
:1013B00011821082E981FA818181282F30E03C83FB
:1013C0002B838B819C81009731F02B813C812830CD
:1013D0003105C9F03BC0AEE4B0E0EEE4F0E080815E
:1013E0008C93A9E5B0E0E9E5F0E08081282FE98160
:1013F000FA818381882F90E0880F991F880F991FA9
:10140000822B8C9323C0AEE4B0E0EEE4F0E0808168
:1014100088608C93A9E5B0E0E9E5F0E08081282FB1
:10142000E981FA818381882F90E082959295907F5F
:101430009827807F9827822B8C93AAE4B0E0E981DB
:10144000FA818481958101978D939C93AEE4B0E0FD
:10145000EEE4F0E09081E981FA818281892B8C931E
:1014600028960FB6F894DEBF0FBECDBFCF91DF91A7
:101470000895DF93CF93CDB7DEB728970FB6F894D2
:10148000DEBF0FBECDBF8A8381E089838A81282F8A
:1014900030E038872F838F819885009731F02F8136
:1014A000388521303105C9F175C08091E401282FBC
:1014B00030E03E832D838D819E81009731F02D8118
:1014C0003E8128303105A1F065C0E8E5F0E080817B
:1014D000882F90E081709070882309F45BC0198296
:1014E000A8E5B0E0E8E5F0E0808181608C9352C02F
:1014F000E8E5F0E08081882F90E08270907096950A
:101500008795009709F446C01982A8E5B0E0E8E5A0
:10151000F0E0808182608C933DC08091EA01282FA9
:1015200030E03C832B838B819C81009731F02B81B1
:101530003C8128303105B9F02DC0E8E5F0E080812C
:10154000882F90E0847090709695879596958795F2
:10155000009701F11982A8E5B0E0E8E5F0E08081AC
:1015600084608C9317C0E8E5F0E08081882F90E0DC
:1015700080719070929582958F7089279F708927CE
:10158000009741F01982A8E5B0E0E8E5F0E080813D
:1015900080618C93898128960FB6F894DEBF0FBEC8
:1015A000CDBFCF91DF910895DF93CF93CDB7DEB755
:1015B0002E970FB6F894DEBF0FBECDBF80E090E04F
:1015C000A0EAB1E48B879C87AD87BE876B857C855D
:1015D0008D859E8520E030E04AE755E40E941F0299
:1015E000DC01CB018F839887A987BA876F817885C3
:1015F00089859A8520E030E040E85FE30E94250479
:1016000088232CF481E090E09E838D833FC06F811E
:10161000788589859A8520E03FEF4FE757E40E945F
:10162000C50318164CF56B857C858D859E8520E05D
:1016300030E040E251E40E941F02DC01CB01BC011A
:10164000CD010E944900DC01CB019E838D830FC038
:1016500080E991E09C838B838B819C810197F1F7DA
:101660009C838B838D819E8101979E838D838D8149
:101670009E81009769F714C06F81788589859A8566
:101680000E944900DC01CB019E838D838D819E8168
:101690009A83898389819A810197F1F79A83898353
:1016A00087E390E061E041E00E945D0887E390E01D
:1016B00062E041E00E945D0887E390E063E041E082
:1016C0000E945D08AAE3B0E0EAE3F0E08081806F69
:1016D0008C9382E00E947E0B88E20E947E0B8CE05D
:1016E0000E947E0B81E00E947E0B2E960FB6F8942E
:1016F000DEBF0FBECDBFCF91DF9108950F931F9333
:10170000DF93CF93CDB7DEB7C356D0400FB6F89472
:10171000DEBF0FBECDBFFE01ED59FF4F808388E3D2
:1017200090E061E040E00E94D40888E390E062E04D
:1017300040E00E94D408FE01E15AFF4F80E090E0B3
:10174000A0E8BFE380839183A283B3838E01055A0F
:101750001F4FFE01E15AFF4F6081718182819381A9
:1017600020E030E04AE755E40E941F02DC01CB0193
:10177000F80180839183A283B383FE01E55AFF4F72
:10178000608171818281938120E030E040E85FE3F5
:101790000E942504882344F4FE01E75AFF4F81E0AC
:1017A00090E09183808364C0FE01E55AFF4F608121
:1017B00071818281938120E03FEF4FE757E40E94DF
:1017C000C50318160CF043C0FE01E15AFF4F6081BB
:1017D00071818281938120E030E040E251E40E94F7
:1017E0001F02DC01CB018E01075A1F4FBC01CD0146
:1017F0000E944900DC01CB01F801918380831FC066
:10180000FE01E95AFF4F80E991E091838083FE0158
:10181000E95AFF4F808191810197F1F7FE01E95A62
:10182000FF4F91838083DE01A75ABF4FFE01E75A25
:10183000FF4F80819181019711969C938E93FE01B9
:10184000E75AFF4F808191810097D1F627C08E0122
:10185000075A1F4FFE01E55AFF4F60817181828157
:1018600093810E944900DC01CB01F80191838083C0
:10187000DE01AB5ABF4FFE01E75AFF4F80819181D5
:101880008D939C93FE01EB5AFF4F808191810197CC
:10189000F1F7FE01EB5AFF4F9183808388E390E0DC
:1018A00063E041E00E94D408FE01EF5AFF4F80E060
:1018B00090E0A0E8BFE380839183A283B3838E018D
:1018C000035B1F4FFE01EF5AFF4F608171818281E0
:1018D000938120E030E04AE755E40E941F02DC01DA
:1018E000CB01F80180839183A283B383FE01E35B84
:1018F000FF4F608171818281938120E030E040E878
:101900005FE30E942504882344F4FE01E55BFF4F5A
:1019100081E090E09183808364C0FE01E35BFF4F30
:10192000608171818281938120E03FEF4FE757E42E
:101930000E94C50318160CF043C0FE01EF5AFF4F7A
:10194000608171818281938120E030E040E251E446
:101950000E941F02DC01CB018E01055B1F4FBC0101
:10196000CD010E944900DC01CB01F8019183808305
:101970001FC0FE01E75BFF4F80E991E09183808308
:10198000FE01E75BFF4F808191810197F1F7FE0136
:10199000E75BFF4F91838083DE01A55BBF4FFE01B4
:1019A000E55BFF4F80819181019711969C938E9307
:1019B000FE01E55BFF4F808191810097D1F627C042
:1019C0008E01055B1F4FFE01E35BFF4F608171815C
:1019D000828193810E944900DC01CB01F80191834F
:1019E0008083DE01A95BBF4FFE01E55BFF4F808175
:1019F00091818D939C93FE01E95BFF4F80819181E2
:101A00000197F1F7FE01E95BFF4F91838083ABE320
:101A1000B0E0EBE3F0E080818F708C93ABE3B0E05B
:101A2000EBE3F0E09081FE01ED59FF4F8081807F74
:101A3000892B8C93FE01ED5BFF4F80E090E0A0E8E6
:101A4000BFE380839183A283B3838E01015C1F4F28
:101A5000FE01ED5BFF4F608171818281938120E007
:101A600030E04AE755E40E941F02DC01CB01F80197
:101A700080839183A283B383FE01FF96608171818D
:101A80008281938120E030E040E85FE30E942504FA
:101A900088232CF481E090E09EAF8DAF46C0FE011C
:101AA000FF96608171818281938120E03FEF4FE753
:101AB00057E40E94C503181664F5FE01ED5BFF4F65
:101AC000608171818281938120E030E040E251E4C5
:101AD0000E941F02DC01CB01BC01CD010E94490024
:101AE000DC01CB019EAF8DAF0FC080E991E09CAFD0
:101AF0008BAF8BAD9CAD0197F1F79CAF8BAF8DADEC
:101B00009EAD01979EAF8DAF8DAD9EAD009769F7ED
:101B100016C0FE01FF9660817181828193810E94CF
:101B20004900DC01CB019EAF8DAF8DAD9EAD9AAF6C
:101B300089AF89AD9AAD0197F1F79AAF89AF88E384
:101B400090E063E040E00E94D40880E090E0A0E8EC
:101B5000BFE38DAB9EABAFABB8AF6DA97EA98FA92C
:101B600098AD20E030E04AE755E40E941F02DC0116
:101B7000CB0189AB9AABABABBCAB69A97AA98BA9FA
:101B80009CA920E030E040E85FE30E942504882320
:101B90002CF481E090E098AB8FA73FC069A97AA9A7
:101BA0008BA99CA920E03FEF4FE757E40E94C503B3
:101BB00018164CF56DA97EA98FA998AD20E030E0EC
:101BC00040E251E40E941F02DC01CB01BC01CD01C7
:101BD0000E944900DC01CB0198AB8FA70FC080E9C0
:101BE00091E09EA78DA78DA59EA50197F1F79EA7D1
:101BF0008DA78FA598A9019798AB8FA78FA598A9B6
:101C0000009769F714C069A97AA98BA99CA90E94B9
:101C10004900DC01CB0198AB8FA78FA598A99CA7A1
:101C20008BA78BA59CA50197F1F79CA78BA788E3B1
:101C300090E063E041E00E94D40880E090E0A0E8FA
:101C4000BFE38FA398A7A9A7BAA76FA178A589A575
:101C50009AA520E030E04AE755E40E941F02DC012B
:101C6000CB018BA39CA3ADA3BEA36BA17CA18DA133
:101C70009EA120E030E040E85FE30E942504882335
:101C80002CF481E090E09AA389A33FC06BA17CA1D2
:101C90008DA19EA120E03FEF4FE757E40E94C503CE
:101CA00018164CF56FA178A589A59AA520E030E01B
:101CB00040E251E40E941F02DC01CB01BC01CD01D6
:101CC0000E944900DC01CB019AA389A30FC080E9DF
:101CD00091E098A38F8F8F8D98A10197F1F798A32A
:101CE0008F8F89A19AA101979AA389A389A19AA10B
:101CF000009769F714C06BA17CA18DA19EA10E94E1
:101D00004900DC01CB019AA389A389A19AA19E8FE6
:101D10008D8F8D8D9E8D0197F1F79E8F8D8FABE30B
:101D2000B0E0EBE3F0E080818F708C93ABE3B0E048
:101D3000EBE3F0E09081FE01ED59FF4F8081829549
:101D4000807F892B8C9380E090E0A0E8BFE3898FAF
:101D50009A8FAB8FBC8F698D7A8D8B8D9C8D20E097
:101D600030E04AE755E40E941F02DC01CB018D8B75
:101D70009E8BAF8BB88F6D897E898F89988D20E07F
:101D800030E040E85FE30E94250488232CF481E0E2
:101D900090E09C8B8B8B3FC06D897E898F89988D5D
:101DA00020E03FEF4FE757E40E94C50318164CF5BB
:101DB000698D7A8D8B8D9C8D20E030E040E251E47E
:101DC0000E941F02DC01CB01BC01CD010E94490031
:101DD000DC01CB019C8B8B8B0FC080E991E09A8B4F
:101DE000898B89899A890197F1F79A8B898B8B89DD
:101DF0009C8901979C8B8B8B8B899C89009769F7B9
:101E000014C06D897E898F89988D0E944900DC01FC
:101E1000CB019C8B8B8B8B899C89988B8F878F8533
:101E200098890197F1F7988B8F8788E390E063E0BA
:101E300040E00E94D40880E090E0A0E8BFE38B87F8
:101E40009C87AD87BE876B857C858D859E8520E0D0
:101E500030E04AE755E40E941F02DC01CB018F838A
:101E60009887A987BA876F81788589859A8520E0C8
:101E700030E040E85FE30E94250488232CF481E0F1
:101E800090E09E838D833FC06F81788589859A8598
:101E900020E03FEF4FE757E40E94C50318164CF5CA
:101EA0006B857C858D859E8520E030E040E251E4A5
:101EB0000E941F02DC01CB01BC01CD010E94490040
:101EC000DC01CB019E838D830FC080E991E09C8370
:101ED0008B838B819C810197F1F79C838B838D8110
:101EE0009E8101979E838D838D819E81009769F7E6
:101EF00014C06F81788589859A850E944900DC012C
:101F0000CB019E838D838D819E819A838983898174
:101F10009A810197F1F79A838983CD59DF4F0FB6E4
:101F2000F894DEBF0FBECDBFCF91DF911F910F910F
:101F30000895DF93CF93CDB7DEB781E00E947E0B8B
:101F4000CF91DF910895DF93CF9300D000D00F920F
:101F5000CDB7DEB78A836B8319828A81282F30E060
:101F60003D832C838C819D8181309105C1F02C8132
:101F70003D81223031052CF48C819D81009761F0E8
:101F800019C02C813D812230310569F08C819D8101
:101F90008330910561F00EC08B8189830BC08B81EA
:101FA0008064898307C08B818061898303C08B81B2
:101FB00080658983898180680E947E0B0F900F90D5
:101FC0000F900F900F90CF91DF9108950F931F9373
:101FD000DF93CF93CDB7DEB7C356D0400FB6F8949A
:101FE000DEBF0FBECDBFFE01ED59FF4F808388E3FA
:101FF00090E061E041E00E94D40888E390E062E074
:1020000040E00E94D408FE01E15AFF4F80E090E0DA
:10201000A0E8BFE380839183A283B3838E01055A36
:102020001F4FFE01E15AFF4F6081718182819381D0
:1020300020E030E04AE755E40E941F02DC01CB01BA
:10204000F80180839183A283B383FE01E55AFF4F99
:10205000608171818281938120E030E040E85FE31C
:102060000E942504882344F4FE01E75AFF4F81E0D3
:1020700090E09183808364C0FE01E55AFF4F608148
:1020800071818281938120E03FEF4FE757E40E9406
:10209000C50318160CF043C0FE01E15AFF4F6081E2
:1020A00071818281938120E030E040E251E40E941E
:1020B0001F02DC01CB018E01075A1F4FBC01CD016D
:1020C0000E944900DC01CB01F801918380831FC08D
:1020D000FE01E95AFF4F80E991E091838083FE0180
:1020E000E95AFF4F808191810197F1F7FE01E95A8A
:1020F000FF4F91838083DE01A75ABF4FFE01E75A4D
:10210000FF4F80819181019711969C938E93FE01E0
:10211000E75AFF4F808191810097D1F627C08E0149
:10212000075A1F4FFE01E55AFF4F6081718182817E
:1021300093810E944900DC01CB01F80191838083E7
:10214000DE01AB5ABF4FFE01E75AFF4F80819181FC
:102150008D939C93FE01EB5AFF4F808191810197F3
:10216000F1F7FE01EB5AFF4F9183808388E390E003
:1021700063E041E00E94D408FE01EF5AFF4F80E087
:1021800090E0A0E8BFE380839183A283B3838E01B4
:10219000035B1F4FFE01EF5AFF4F60817181828107
:1021A000938120E030E04AE755E40E941F02DC0101
:1021B000CB01F80180839183A283B383FE01E35BAB
:1021C000FF4F608171818281938120E030E040E89F
:1021D0005FE30E942504882344F4FE01E55BFF4F82
:1021E00081E090E09183808364C0FE01E35BFF4F58
:1021F000608171818281938120E03FEF4FE757E456
:102200000E94C50318160CF043C0FE01EF5AFF4FA1
:10221000608171818281938120E030E040E251E46D
:102220000E941F02DC01CB018E01055B1F4FBC0128
:10223000CD010E944900DC01CB01F801918380832C
:102240001FC0FE01E75BFF4F80E991E0918380832F
:10225000FE01E75BFF4F808191810197F1F7FE015D
:10226000E75BFF4F91838083DE01A55BBF4FFE01DB
:10227000E55BFF4F80819181019711969C938E932E
:10228000FE01E55BFF4F808191810097D1F627C069
:102290008E01055B1F4FFE01E35BFF4F6081718183
:1022A000828193810E944900DC01CB01F801918376
:1022B0008083DE01A95BBF4FFE01E55BFF4F80819C
:1022C00091818D939C93FE01E95BFF4F8081918109
:1022D0000197F1F7FE01E95BFF4F91838083ABE348
:1022E000B0E0EBE3F0E080818F708C93ABE3B0E083
:1022F000EBE3F0E09081FE01ED59FF4F8081807F9C
:10230000892B8C93FE01ED5BFF4F80E090E0A0E80D
:10231000BFE380839183A283B3838E01015C1F4F4F
:10232000FE01ED5BFF4F608171818281938120E02E
:1023300030E04AE755E40E941F02DC01CB01F801BE
:1023400080839183A283B383FE01FF9660817181B4
:102350008281938120E030E040E85FE30E94250421
:1023600088232CF481E090E09EAF8DAF46C0FE0143
:10237000FF96608171818281938120E03FEF4FE77A
:1023800057E40E94C503181664F5FE01ED5BFF4F8C
:10239000608171818281938120E030E040E251E4EC
:1023A0000E941F02DC01CB01BC01CD010E9449004B
:1023B000DC01CB019EAF8DAF0FC080E991E09CAFF7
:1023C0008BAF8BAD9CAD0197F1F79CAF8BAF8DAD13
:1023D0009EAD01979EAF8DAF8DAD9EAD009769F715
:1023E00016C0FE01FF9660817181828193810E94F7
:1023F0004900DC01CB019EAF8DAF8DAD9EAD9AAF94
:1024000089AF89AD9AAD0197F1F79AAF89AF88E3AB
:1024100090E063E040E00E94D40880E090E0A0E813
:10242000BFE38DAB9EABAFABB8AF6DA97EA98FA953
:1024300098AD20E030E04AE755E40E941F02DC013D
:10244000CB0189AB9AABABABBCAB69A97AA98BA921
:102450009CA920E030E040E85FE30E942504882347
:102460002CF481E090E098AB8FA73FC069A97AA9CE
:102470008BA99CA920E03FEF4FE757E40E94C503DA
:1024800018164CF56DA97EA98FA998AD20E030E013
:1024900040E251E40E941F02DC01CB01BC01CD01EE
:1024A0000E944900DC01CB0198AB8FA70FC080E9E7
:1024B00091E09EA78DA78DA59EA50197F1F79EA7F8
:1024C0008DA78FA598A9019798AB8FA78FA598A9DD
:1024D000009769F714C069A97AA98BA99CA90E94E1
:1024E0004900DC01CB0198AB8FA78FA598A99CA7C9
:1024F0008BA78BA59CA50197F1F79CA78BA788E3D9
:1025000090E063E041E00E94D40880E090E0A0E821
:10251000BFE38FA398A7A9A7BAA76FA178A589A59C
:102520009AA520E030E04AE755E40E941F02DC0152
:10253000CB018BA39CA3ADA3BEA36BA17CA18DA15A
:102540009EA120E030E040E85FE30E94250488235C
:102550002CF481E090E09AA389A33FC06BA17CA1F9
:102560008DA19EA120E03FEF4FE757E40E94C503F5
:1025700018164CF56FA178A589A59AA520E030E042
:1025800040E251E40E941F02DC01CB01BC01CD01FD
:102590000E944900DC01CB019AA389A30FC080E906
:1025A00091E098A38F8F8F8D98A10197F1F798A351
:1025B0008F8F89A19AA101979AA389A389A19AA132
:1025C000009769F714C06BA17CA18DA19EA10E9408
:1025D0004900DC01CB019AA389A389A19AA19E8F0E
:1025E0008D8F8D8D9E8D0197F1F79E8F8D8FABE333
:1025F000B0E0EBE3F0E080818F708C93ABE3B0E070
:10260000EBE3F0E09081FE01ED59FF4F8081829570
:10261000807F892B8C9380E090E0A0E8BFE3898FD6
:102620009A8FAB8FBC8F698D7A8D8B8D9C8D20E0BE
:1026300030E04AE755E40E941F02DC01CB018D8B9C
:102640009E8BAF8BB88F6D897E898F89988D20E0A6
:1026500030E040E85FE30E94250488232CF481E009
:1026600090E09C8B8B8B3FC06D897E898F89988D84
:1026700020E03FEF4FE757E40E94C50318164CF5E2
:10268000698D7A8D8B8D9C8D20E030E040E251E4A5
:102690000E941F02DC01CB01BC01CD010E94490058
:1026A000DC01CB019C8B8B8B0FC080E991E09A8B76
:1026B000898B89899A890197F1F79A8B898B8B8904
:1026C0009C8901979C8B8B8B8B899C89009769F7E0
:1026D00014C06D897E898F89988D0E944900DC0124
:1026E000CB019C8B8B8B8B899C89988B8F878F855B
:1026F00098890197F1F7988B8F8788E390E063E0E2
:1027000040E00E94D40880E090E0A0E8BFE38B871F
:102710009C87AD87BE876B857C858D859E8520E0F7
:1027200030E04AE755E40E941F02DC01CB018F83B1
:102730009887A987BA876F81788589859A8520E0EF
:1027400030E040E85FE30E94250488232CF481E018
:1027500090E09E838D833FC06F81788589859A85BF
:1027600020E03FEF4FE757E40E94C50318164CF5F1
:102770006B857C858D859E8520E030E040E251E4CC
:102780000E941F02DC01CB01BC01CD010E94490067
:10279000DC01CB019E838D830FC080E991E09C8397
:1027A0008B838B819C810197F1F79C838B838D8137
:1027B0009E8101979E838D838D819E81009769F70D
:1027C00014C06F81788589859A850E944900DC0153
:1027D000CB019E838D838D819E819A83898389819C
:1027E0009A810197F1F79A838983CD59DF4F0FB60C
:1027F000F894DEBF0FBECDBFCF91DF911F910F9137
:102800000895DF93CF9300D0CDB7DEB79A83898345
:102810000AC0E981FA8180810E94E60F89819A814C
:1028200001969A838983E981FA818081882389F7D7
:102830000F900F90CF91DF910895DF93CF93CDB795
:10284000DEB765970FB6F894DEBF0FBECDBF6A8BBB
:102850007B8B8C8B9D8B8A899B899E012F5F3F4F41
:10286000B9014AE050E00E945418CE0101960E943E
:10287000011465960FB6F894DEBF0FBECDBFCF91A1
:10288000DF910895CF92DF92EF92FF920F931F9303
:10289000DF93CF93CDB7DEB72A970FB6F894DEBF9C
:1028A0000FBECDBF9A838983E981FA818081282F69
:1028B00030E03A87298789859A85009739F0E9853C
:1028C000FA85E130F10509F46BC0B7C1E3E5F0E04A
:1028D0001082E2E5F0E01082A3E5B0E0E3E5F0E08D
:1028E0002081E981FA819381E981FA818181982BA4
:1028F000E981FA818281892B822B8C93E981FA818B
:102900008281282F30E038872F838F81988580320D
:10291000910541F1EF81F885E033F10509F08DC1B2
:102920000CE510E0E981FA812085318584E690E0AC
:10293000821B930B24E630E0B9010E940918CB01F9
:10294000AC01CA019C01220F331FC9019695982F33
:10295000882797958795821B930B840F951FF80105
:1029600080836BC10CE510E0E981FA818085918557
:1029700024E630E0B9010E940918CB01AC01CA017C
:102980009C01220F331FC9019695982F8827979590
:102990008795821B930B840F951FF80180834DC18F
:1029A000EFE4F0E01082EEE4F0E01082ECE4F0E01E
:1029B00011821082E981FA818181282F30E03E83E3
:1029C0002D838D819E818034910511F1ED81FE81F1
:1029D000E834F105C9F5AFE4B0E0EFE4F0E0808160
:1029E0008E7F8C93AFE4B0E0EFE4F0E08081826012
:1029F0008C93AEE4B0E0EEE4F0E0808188608C93EC
:102A0000AEE4B0E0EEE4F0E0808180618C931CC025
:102A1000AFE4B0E0EFE4F0E0808181608C93AFE45C
:102A2000B0E0EFE4F0E0808182608C93AEE4B0E04F
:102A3000EEE4F0E08081877F8C93AEE4B0E0EEE4DA
:102A4000F0E0808180618C93E981FA8186819781B1
:102A5000CC01A0E0B0E0BC01CD010E94A9047B0143
:102A60008C01E981FA8184819581CC01A0E0B0E0FC
:102A7000BC01CD010E94A9049B01AC0160E070E0A3
:102A80008AE794E40E941903DC01CB019C01AD01AB
:102A9000C801B7010E941F02DC01CB019C01AD01FE
:102AA00060E074E284E79BE40E941903DC01CB013F
:102AB000BC01CD010E944900DC01CB01019790933C
:102AC000F7018093F601E6E4F0E08091F601909141
:102AD000F70191838083E981FA818281282F30E098
:102AE0003C832B838B819C818032910509F453C0F8
:102AF000EB81FC81E033F10509F095C0AFE4B0E073
:102B0000EFE4F0E0808180648C93AFE4B0E0EFE428
:102B1000F0E0808180688C930F2EFAE4CF2EDD24C4
:102B2000F02DE981FA812085318584E690E0821BD1
:102B3000930BCC01A0E0B0E0BC01CD010E94A90440
:102B4000DC01CB01BC01CD0120E030E048EC52E4D7
:102B50000E941903DC01CB017C018D018091F601FB
:102B60009091F701CC01A0E0B0E0BC01CD010E9442
:102B7000A9049B01AC01C801B7010E941F02DC013E
:102B8000CB01BC01CD010E944900DC01CB01F60163
:102B90009183808348C0AFE4B0E0EFE4F0E080814F
:102BA0008F7B8C93AFE4B0E0EFE4F0E0808180684D
:102BB0008C930F2EFAE4CF2EDD24F02DE981FA81DB
:102BC00080859185CC01A0E0B0E0BC01CD010E94E0
:102BD000A904DC01CB01BC01CD0120E030E048ECD0
:102BE00052E40E941903DC01CB017C018D0180912C
:102BF000F6019091F701CC01A0E0B0E0BC01CD015D
:102C00000E94A9049B01AC01C801B7010E941F02E8
:102C1000DC01CB01BC01CD010E944900DC01CB01EC
:102C2000F60191838083AEE4B0E0EEE4F0E09081C1
:102C3000E981FA818381892B8C932A960FB6F894C7
:102C4000DEBF0FBECDBFCF91DF911F910F91FF90DF
:102C5000EF90DF90CF900895CF92DF92EF92FF92A6
:102C60000F931F93DF93CF93CDB7DEB729970FB69E
:102C7000F894DEBF0FBECDBF89837B836A838981D1
:102C8000282F30E039872887488559854115510517
:102C900039F0888599858130910509F44EC0D6C0F8
:102CA0008091C701E82FF0E0FF83EE832E813F8102
:102CB0002032310539F14E815F814033510509F0F1
:102CC000C5C0ECE5F0E024E630E08A819B81A901F3
:102CD000481B590BCA0124E630E0B9010E940918CB
:102CE000CB01AC01CA019C01220F331FC90196958B
:102CF000982F882797958795821B930B840F951F94
:102D00008083A4C0ECE5F0E08A819B8124E630E07A
:102D1000B9010E940918CB01AC01CA019C01220F24
:102D2000331FC9019695982F882797958795821B01
:102D3000930B840F951F808389C08091C701E82F72
:102D4000F0E0FD83EC832C813D812032310509F4D4
:102D500045C04C815D814033510509F077C00F2E8D
:102D6000FAE4CF2EDD24F02D24E630E08A819B8129
:102D7000F901E81BF90BCF01CC01A0E0B0E0BC01E8
:102D8000CD010E94A904DC01CB01BC01CD0120E0F2
:102D900030E048EC52E40E941903DC01CB017C01D5
:102DA0008D018091F6019091F701CC01A0E0B0E097
:102DB000BC01CD010E94A9049B01AC01C801B7016F
:102DC0000E941F02DC01CB01BC01CD010E94490021
:102DD000DC01CB01F6019183808338C00F2EFAE429
:102DE000CF2EDD24F02D8A819B81CC01A0E0B0E0C4
:102DF000BC01CD010E94A904DC01CB01BC01CD01C5
:102E000020E030E048EC52E40E941903DC01CB01E1
:102E10007C018D018091F6019091F701CC01A0E039
:102E2000B0E0BC01CD010E94A9049B01AC01C80126
:102E3000B7010E941F02DC01CB01BC01CD010E9441
:102E40004900DC01CB01F6019183808329960FB6FE
:102E5000F894DEBF0FBECDBFCF91DF911F910F91D0
:102E6000FF90EF90DF90CF900895DF93CF93CDB791
:102E7000DEB7E0E4F0E01082E9E2F0E087E680838C
:102E8000EAE2F0E088E18083E0E4F0E086E8808335
:102E9000CF91DF910895DF93CF93CDB7DEB7EBE20B
:102EA000F0E080818823DCF7ECE2F0E08081CF91D4
:102EB000DF910895DF93CF930F92CDB7DEB789836B
:102EC000EBE2F0E08081882F90E0807290700097B4
:102ED000B9F3ECE2F0E0898180830F90CF91DF912C
:102EE0000895DF93CF9300D0CDB7DEB79A8389835F
:102EF0000AC0E981FA8180810E945A1789819A81EA
:102F000001969A838983E981FA818081882389F7F0
:102F10000F900F90CF91DF910895DF93CF930F9291
:102F2000CDB7DEB70E9417070E9492070E94D40A0D
:102F30000E9435170E944B17898389818C3661F472
:102F40000E94990F80E060E00E94A30F8FE790E05D
:102F50000E9401140E943F088981823761F40E9417
:102F6000990F80E060E00E94A30F8CE890E00E943F
:102F700001140E944E088981863611F40E940D08C2
:102F80008981823611F40E9426088981843479F47B
:102F90000E94990F80E060E00E94A30F8AE990E010
:102FA0000E94011481E064E170E00E942C16898186
:102FB000883479F40E94990F80E060E00E94A30FAA
:102FC00085EA90E00E94011481E06AE570E00E94C9
:102FD0002C168981833709F0ADCF0E94990F80E0CC
:102FE00060E00E94A30F81EB90E00E94011481E059
:102FF00060E070E00E942C1685E390E065E041E01F
:103000000E94D40885E390E066E040E00E94D40886
:1030100091CFAA1BBB1B51E107C0AA1FBB1FA6175C
:10302000B70710F0A61BB70B881F991F5A95A9F771
:1030300080959095BC01CD0108952F923F924F92BB
:103040005F926F927F928F929F92AF92BF92CF9238
:10305000DF92EF92FF920F931F93CF93DF93CDB741
:10306000DEB7CA1BDB0B0FB6F894DEBF0FBECDBFB9
:1030700009942A88398848885F846E847D848C848A
:103080009B84AA84B984C884DF80EE80FD800C8193
:103090001B81AA81B981CE0FD11D0FB6F894DEBF76
:1030A0000FBECDBFED010895FB019F01E8944230B2
:1030B000C4F04532B4F44A3029F497FB1EF49095DD
:1030C00081959F4F642F77270E940918805D8A336E
:1030D0000CF0895D8193CB010097A1F716F45DE2B6
:1030E00051931082C9010C947518DC01FC01672F03
:1030F00071917723E1F7329704C07C916D937083CF
:0E3100006291AE17BF07C8F30895F894FFCF91
:10310E004D6F76696E6720466F7277617264004DFF
:10311E006F76696E67204261636B776172640054EB
:10312E0075726E696E67204C656674005475726EAA
:10313E00696E67205269676874004D6F76696E67B5
:10314E00204C6F77004D6F76696E6720486967680F
:10315E00004361722053746F70706564000000004C
:10316E000000000000000102020303030304040434
:10317E0004040404040505050505050505050505F6
:10318E0005050505050606060606060606060606D6
:10319E0006060606060606060606060606060606C1
:1031AE0006060606060707070707070707070707A6
:1031BE000707070707070707070707070707070791
:1031CE000707070707070707070707070707070781
:1031DE000707070707070707070707070707070771
:1031EE000707070707080808080808080808080856
:1031FE000808080808080808080808080808080841
:10320E000808080808080808080808080808080830
:10321E000808080808080808080808080808080820
:10322E000808080808080808080808080808080810
:10323E000808080808080808080808080808080800
:10324E0008080808080808080808080808080808F0
:10325E0008080808080808080808080808080808E0
:10326E000808080808004830040100000132000177
:10327E0048300301004000320002483005010000D2
:10328E0004500000000401000001080501093D0280
:06329E0000040100000025
:00000001FF
